:100000000C942A000C948E100C94BB100C94470096
:100010000C9447000C9447000C9447000C94470044
:100020000C9447000C9447000C9447000C94470034
:100030000C9447000C9447000C9447000C94470024
:100040000C9447000C9447000C94E8100C94470063
:100050000C94470011241FBECFE5D4E0DEBFCDBF16
:1000600011E0A0E6B0E0E0EBF4E402C005900D92F0
:10007000A238B107D9F711E0A2E8B1E001C01D92A2
:10008000A838B107E1F70E94B9200C9456220C94CD
:100090000000EF92FF920F931F937B018C0120E0F1
:1000A00030E040E05FE40E94F50388238CF0C80153
:1000B000B70120E030E040E05FE40E94C1010E940F
:1000C000B3049B01AC01205030404040504806C072
:1000D000C801B7010E94B3049B01AC01B901CA0178
:1000E0001F910F91FF90EF900895A0E0B0E0EBE733
:1000F000F0E00C94EE21DC012B01FA019C9192308E
:1001000008F439C1EB018881823008F433C194309E
:1001100069F4843009F02FC111969C91119789815F
:10012000981709F428C1AAE7B0E025C1843009F482
:1001300021C18230A9F4923009F01DC19A01AD01AC
:1001400088E0EA010990AE01E90109929E0181501F
:10015000C1F7E201898111969C918923818308C1AD
:10016000923009F407C112962D903C901397EB0141
:100170008A819B811496AD90BD90CD90DC901797AD
:10018000EC80FD800E811F819101281B390BB90184
:1001900037FF04C066277727621B730B6032710537
:1001A0000CF061C0121613066CF537014801062EDB
:1001B00004C096948794779467940A94D2F721E0C8
:1001C00030E040E050E004C0220F331F441F551FB1
:1001D0006A95D2F721503040404050402E213F21B7
:1001E00040235123211531054105510521F021E01E
:1001F00030E040E050E079018A01E628F72808293C
:1002000019293CC0232BD1F1260E371E350146019A
:10021000062E04C096948794779467940A94D2F734
:1002200021E030E040E050E004C0220F331F441FC3
:10023000551F6A95D2F721503040404050402A2146
:100240003B214C215D21211531054105510521F04E
:1002500021E030E040E050E059016A01A628B728CB
:10026000C828D9280BC0821593052CF01C01AA249C
:10027000BB24650103C0EE24FF24870111969C91E5
:10028000D20111968C91981709F445C0992339F041
:10029000A80197012A193B094C095D0906C0A6016E
:1002A00095012E193F09400B510B57FD08C01182D3
:1002B0003382228224833583468357831DC081E0A5
:1002C00081833382228288279927DC01821B930B4A
:1002D000A40BB50B84839583A683B7830DC0220F2F
:1002E000331F441F551F24833583468357838281E0
:1002F000938101979383828324813581468157813D
:10030000DA01C9010197A109B1098F5F9F4FAF4F72
:10031000BF4328F30BC0918333822282EA0CFB1C7B
:100320000C1D1D1DE482F5820683178383E0808304
:10033000248135814681578157FF1AC0C901AA27F8
:1003400097FDA095BA2F81709070A070B0705695EF
:10035000479537952795822B932BA42BB52B848318
:100360009583A683B7838281938101969383828349
:10037000DF0101C0D201CD01CDB7DEB7E2E10C94BF
:100380000A22A0E2B0E0E7ECF1E00C94FA216983E4
:100390007A838B839C832D833E834F835887E9E048
:1003A000EE2EF12CEC0EFD1ECE010196B7010E943F
:1003B000A4068E010F5E1F4FCE010596B8010E9464
:1003C000A4068A8991E089278A8BC701B801AE010A
:1003D000475E5F4F0E9475000E94CF05A096E6E041
:1003E0000C941622A0E2B0E0E8EFF1E00C94FA21C0
:1003F00069837A838B839C832D833E834F835887C5
:10040000F9E0EF2EF12CEC0EFD1ECE010196B701A6
:100410000E94A4068E010F5E1F4FCE010596B80103
:100420000E94A406C701B801AE01475E5F4F0E945B
:1004300075000E94CF05A096E6E00C941622A0E27B
:10044000B0E0E5E2F2E00C94EE2169837A838B83DD
:100450009C832D833E834F835887CE010196BE0136
:10046000675F7F4F0E94A406CE010596BE016F5EB6
:100470007F4F0E94A4069985923088F08989823046
:10048000C8F0943019F4823051F404C0843029F457
:10049000923081F48AE790E0C6C0923049F420E0BF
:1004A0009A858A89981321E02A87CE010996BBC0D4
:1004B000823049F420E09A858A89981321E02A8BBA
:1004C000CE014196B0C02D843E844F8458886D88FB
:1004D0007E888F88988CEE24FF248701AA24BB2471
:1004E000650140E050E060E070E0E0E0F0E0C10174
:1004F00081709070892BE9F0E60CF71C081D191D1E
:100500009A01AB012A0D3B1D4C1D5D1D80E090E062
:10051000A0E0B0E0E614F7040805190520F481E036
:1005200090E0A0E0B0E0BA01A901480F591F6A1F8E
:100530007B1FAA0CBB1CCC1CDD1C97FE08C081E0F5
:1005400090E0A0E0B0E0A82AB92ACA2ADB2A3196B6
:10055000E032F10549F0660C771C881C991C569412
:10056000479437942794C3CFFA85EA892B893C892D
:100570008B859C85280F391F2E5F3F4F17C0CA01FE
:1005800081709070892B61F016950795F794E79428
:1005900080E090E0A0E0B0E8E82AF92A0A2B1B2BC3
:1005A00076956795579547952F5F3F4F77FDE7CF36
:1005B0000CC0440F551F661F771F17FD4160EE0CDE
:1005C000FF1C001F111F21503040403090E05907A0
:1005D00090E0690790E4790760F32B8F3C8FDB0193
:1005E000CA018F779070A070B07080349105A1051A
:1005F000B10561F447FD0AC0E114F10401051105DC
:1006000029F0405C5F4F6F4F7F4F40781A8EFE1786
:1006100011F081E08A8F4D8F5E8F6F8F78A383E01A
:10062000898FCE0149960E94CF05A096E2E10C94F5
:100630000A22A8E1B0E0EFE1F3E00C94F62169832F
:100640007A838B839C832D833E834F835887B9E0C5
:10065000EB2EF12CEC0EFD1ECE010196B7010E948F
:10066000A4068E010F5E1F4FCE010596B8010E94B1
:10067000A4062985223008F47EC03989323010F46E
:10068000B8017CC08A859A8989278A87243011F02D
:10069000223031F4231709F06EC06AE770E06EC0B3
:1006A000343039F41D861E861F86188A1C861B86E8
:1006B00004C0323021F484E08987B7015FC02B8504
:1006C0003C858B899C89281B390B3C872B87ED84C3
:1006D000FE840F851889AD88BE88CF88D88CEA142F
:1006E000FB040C051D0540F4EE0CFF1C001F111F40
:1006F000215030403C872B8720E030E040E050E044
:1007000080E090E0A0E0B0E460E070E0EA14FB0478
:100710000C051D0540F0282B392B4A2B5B2BEA18C2
:10072000FB080C091D09B695A79597958795EE0CC2
:10073000FF1C001F111F6F5F7F4F6F31710531F775
:10074000DA01C9018F779070A070B0708034910584
:10075000A105B10561F427FD0AC0E114F10401050A
:10076000110529F0205C3F4F4F4F5F4F20782D87B8
:100770003E874F87588BBE01675F7F4FCB010E943A
:10078000CF056896EAE00C941222A8E1B0E0EBEC09
:10079000F3E00C94FA2169837A838B839C832D8305
:1007A0003E834F83588789E0E82EF12CEC0EFD1E26
:1007B000CE010196B7010E94A4068E010F5E1F4F65
:1007C000CE010596B8010E94A4068985823040F0CA
:1007D0008989823028F0C701B8010E941C0701C036
:1007E0008FEF6896E6E00C941622A8E1B0E0EBEFFC
:1007F000F3E00C94FA2169837A838B839C832D83A5
:100800003E834F83588789E0E82EF12CEC0EFD1EC5
:10081000CE010196B7010E94A4068E010F5E1F4F04
:10082000CE010596B8010E94A4068985823040F069
:100830008989823028F0C701B8010E941C0701C0D5
:100840008FEF6896E6E00C941622A8E1B0E0EBE2A8
:10085000F4E00C94FA2169837A838B839C832D8343
:100860003E834F83588789E0E82EF12CEC0EFD1E65
:10087000CE010196B7010E94A4068E010F5E1F4FA4
:10088000CE010596B8010E94A4068985823040F009
:100890008989823028F0C701B8010E941C0701C075
:1008A00081E06896E6E00C941622A8E0B0E0EBE563
:1008B000F4E00C94F7219B01AC0183E08983DA0119
:1008C000C9018827B7FD83959927AA27BB27B82E8A
:1008D000211531054105510519F482E089833AC09B
:1008E0008823A9F0203080E0380780E0480780E8BE
:1008F000580729F460E070E080E09FEC30C0EE24FF
:10090000FF248701E21AF30A040B150B02C07901D8
:100910008A018EE1C82ED12CDC82CB82ED82FE8250
:100920000F831887C801B7010E9480050197181628
:10093000190684F4082E04C0EE0CFF1C001F111FC2
:100940000A94D2F7ED82FE820F831887C81AD90A5B
:10095000DC82CB82BA82CE0101960E94CF05289616
:10096000E9E00C941322ACE0B0E0E9EBF4E00C9485
:10097000FE2169837A838B839C83CE010196BE011D
:100980006B5F7F4F0E94A4068D81823061F18230BF
:1009900050F1843021F48E81882351F12EC02F81B3
:1009A000388537FD20C06E812F3131051CF066235C
:1009B000F9F023C08EE190E0821B930B29853A85E4
:1009C0004B855C8504C056954795379527958A9544
:1009D000D2F76623B1F050954095309521953F4F61
:1009E0004F4F5F4F0EC020E030E040E050E009C0C4
:1009F0002FEF3FEF4FEF5FE704C020E030E040E033
:100A000050E8B901CA012C96E2E00C941A22A8E041
:100A1000B0E0EDE0F5E00C94F6217B018C0161156E
:100A200071058105910519F482E0898360C083E036
:100A300089838EE1C82ED12CDC82CB82ED82FE82AE
:100A40000F831887C801B7010E948005FC01319708
:100A5000F7FF3BC0222733272E1B3F0B57016801AE
:100A6000022E04C0D694C794B794A7940A94D2F7E0
:100A700040E050E060E070E081E090E0A0E0B0E0B5
:100A800004C0880F991FAA1FBB1F2A95D2F7019790
:100A9000A109B1098E219F21A023B1230097A105AF
:100AA000B10521F041E050E060E070E04A295B29A7
:100AB0006C297D294D835E836F8378878EE190E07A
:100AC0008E1B9F0B9C838B8312C0309781F00E2E60
:100AD00004C0EE0CFF1C001F111F0A94D2F7ED8218
:100AE000FE820F831887CE1ADF0ADC82CB821A823D
:100AF000CE0101960E94CF052896EAE00C941222BE
:100B0000EF92FF920F931F937B018C0180E0E81618
:100B100080E0F80681E0080780E0180788F48FEF8E
:100B2000E816F1040105110531F028F088E090E0A5
:100B3000A0E0B0E017C080E090E0A0E0B0E012C01C
:100B400080E0E81680E0F80680E0080781E01807FA
:100B500028F088E190E0A0E0B0E004C080E190E0FF
:100B6000A0E0B0E020E230E040E050E0281B390B8C
:100B70004A0B5B0B04C016950795F794E7948A958A
:100B8000D2F7F701EE57FF4F8081281B3109410949
:100B90005109C9011F910F91FF90EF900895DF92C5
:100BA000EF92FF920F931F93FC01E480F580068182
:100BB0001781D1808081823048F480E090E0A0E10C
:100BC000B0E0E82AF92A0A2B1B2BA5C0843009F4CF
:100BD0009FC0823021F4EE24FF24870105C0E11478
:100BE000F1040105110519F4E0E0F0E096C062811E
:100BF00073819FEF623879070CF05BC022E83FEF0A
:100C0000261B370B2A3131052CF020E030E040E084
:100C100050E02AC0B801A701022E04C0769567955E
:100C2000579547950A94D2F781E090E0A0E0B0E0B4
:100C300004C0880F991FAA1FBB1F2A95D2F70197DE
:100C4000A109B1098E219F21A023B1230097A105FD
:100C5000B10521F081E090E0A0E0B0E09A01AB01A5
:100C6000282B392B4A2B5B2BDA01C9018F77907027
:100C7000A070B07080349105A105B10539F427FF4B
:100C800009C0205C3F4F4F4F5F4F04C0215C3F4F76
:100C90004F4F5F4FE0E0F0E02030A0E03A07A0E0E7
:100CA0004A07A0E45A0710F0E1E0F0E079018A0178
:100CB00027C06038710564F5FB01E158FF4FD8018A
:100CC000C7018F779070A070B07080349105A10536
:100CD000B10539F4E7FE0DC080E490E0A0E0B0E09B
:100CE00004C08FE390E0A0E0B0E0E80EF91E0A1F18
:100CF0001B1F17FF05C016950795F794E7943196CB
:100D000087E016950795F794E7948A95D1F705C083
:100D1000EE24FF248701EFEFF0E06E2F6795662742
:100D20006795902F9F77D794DD24D7948E2F869543
:100D3000492F462B582F5D29B701CA011F910F91EA
:100D4000FF90EF90DF900895FC01DB01408151811D
:100D50002281622F6F7770E0221F2227221F93814A
:100D6000892F880F822B282F30E0991F9927991FF0
:100D700011969C93119721153105A9F5411551053F
:100D80006105710511F482E037C082E89FEF139688
:100D90009C938E9312979A01AB0167E0220F331F49
:100DA000441F551F6A95D1F783E08C930DC0220F25
:100DB000331F441F551F12968D919C9113970197D5
:100DC00013969C938E931297203080E0380780E032
:100DD000480780E4580758F314962D933D934D939C
:100DE0005C93179708952F3F310579F4411551050C
:100DF0006105710519F484E08C93089564FF03C0C4
:100E000081E08C9312C01C9210C02F573040139673
:100E10003C932E93129783E08C9387E0440F551FE9
:100E2000661F771F8A95D1F7706414964D935D9372
:100E30006D937C93179708951F93DC01FB019C91A0
:100E4000923008F447C08081823008F443C0943067
:100E500051F411961C91843099F58181682F70E0CE
:100E6000611B71093FC0843021F0923031F482302F
:100E7000B9F18181882389F12DC011961C911197B8
:100E80008230F1F081811817D9F412962D913C919E
:100E90001397828193818217930794F0281739075B
:100EA000BCF014968D919D910D90BC91A02D248144
:100EB000358146815781281739074A075B0718F49F
:100EC000112341F00AC082179307A407B50740F425
:100ED000112319F061E070E005C06FEF7FEF02C0F1
:100EE00060E070E0CB011F910895DF93CF93CDB701
:100EF000DEB72D970FB6F894DEBF0FBECDBF898346
:100F00006A834B838981282F30E03D872C878C852D
:100F10009D858434910509F4DDC02C853D852534FB
:100F2000310594F48C859D858234910509F462C065
:100F30002C853D85233431050CF094C08C859D852E
:100F400081349105F9F0FCC02C853D8522363105B0
:100F500009F450C08C859D858336910534F42C8529
:100F60003D852136310571F0EBC08C859D8583363A
:100F7000910509F477C02C853D852436310509F4A7
:100F8000A9C0DEC08B81282F30E03B872A878A8565
:100F90009B850097D1F02A853B852130310509F0EA
:100FA000CFC0AAE3B0E0EAE3F0E08081482F8A8175
:100FB000282F30E081E090E0022E02C0880F991FB8
:100FC0000A94E2F7842B8C93BBC0AAE3B0E0EAE377
:100FD000F0E08081482F8A81282F30E081E090E086
:100FE000022E02C0880F991F0A94E2F7809584238D
:100FF0008C93A6C08B81282F30E03987288788857D
:1010000099850097D1F0288539852130310509F07F
:1010100097C0A7E3B0E0E7E3F0E08081482F8A8142
:10102000282F30E081E090E0022E02C0880F991F47
:101030000A94E2F7842B8C9383C0A7E3B0E0E7E344
:10104000F0E08081482F8A81282F30E081E090E015
:10105000022E02C0880F991F0A94E2F7809584231C
:101060008C936EC08B81282F30E03F832E838E813E
:101070009F810097D1F02E813F812130310509F009
:101080005FC0A4E3B0E0E4E3F0E08081482F8A8110
:10109000282F30E081E090E0022E02C0880F991FD7
:1010A0000A94E2F7842B8C934BC0A4E3B0E0E4E312
:1010B000F0E08081482F8A81282F30E081E090E0A5
:1010C000022E02C0880F991F0A94E2F780958423AC
:1010D0008C9336C08B81282F30E03D832C838C810C
:1010E0009D810097C9F02C813D812130310541F56A
:1010F000A1E3B0E0E1E3F0E08081482F8A81282F6E
:1011000030E081E090E0022E02C0880F991F0A941F
:10111000E2F7842B8C9314C0A1E3B0E0E1E3F0E0AC
:101120008081482F8A81282F30E081E090E0022ED4
:1011300002C0880F991F0A94E2F7809584238C934C
:101140002D960FB6F894DEBF0FBECDBFCF91DF91C5
:101150000895DF93CF93CDB7DEB72D970FB6F894F0
:10116000DEBF0FBECDBF89836A834B838981282F61
:1011700030E03D872C878C859D858434910509F46A
:10118000DDC02C853D852534310594F48C859D8505
:101190008234910509F462C02C853D8523343105E4
:1011A0000CF094C08C859D8581349105F9F0FCC0CC
:1011B0002C853D852236310509F450C08C859D85EE
:1011C0008336910534F42C853D852136310571F047
:1011D000EBC08C859D858336910509F477C02C85FD
:1011E0003D852436310509F4A9C0DEC08B81282F46
:1011F00030E03B872A878A859B850097D1F02A8536
:101200003B852130310509F0CFC0ABE3B0E0EBE323
:10121000F0E08081482F8A81282F30E081E090E043
:10122000022E02C0880F991F0A94E2F7842B8C9338
:10123000BBC0ABE3B0E0EBE3F0E08081482F8A81F4
:10124000282F30E081E090E0022E02C0880F991F25
:101250000A94E2F7809584238C93A6C08B81282F73
:1012600030E039872887888599850097D1F02885CF
:1012700039852130310509F097C0A8E3B0E0E8E3F3
:10128000F0E08081482F8A81282F30E081E090E0D3
:10129000022E02C0880F991F0A94E2F7842B8C93C8
:1012A00083C0A8E3B0E0E8E3F0E08081482F8A81C2
:1012B000282F30E081E090E0022E02C0880F991FB5
:1012C0000A94E2F7809584238C936EC08B81282F3B
:1012D00030E03F832E838E819F810097D1F02E8155
:1012E0003F812130310509F05FC0A5E3B0E0E5E3BF
:1012F000F0E08081482F8A81282F30E081E090E063
:10130000022E02C0880F991F0A94E2F7842B8C9357
:101310004BC0A5E3B0E0E5E3F0E08081482F8A818F
:10132000282F30E081E090E0022E02C0880F991F44
:101330000A94E2F7809584238C9336C08B81282F02
:1013400030E03D832C838C819D810097C9F02C81F6
:101350003D812130310541F5A2E3B0E0E2E3F0E068
:101360008081482F8A81282F30E081E090E0022E92
:1013700002C0880F991F0A94E2F7842B8C9314C043
:10138000A2E3B0E0E2E3F0E08081482F8A81282FD9
:1013900030E081E090E0022E02C0880F991F0A948D
:1013A000E2F7809584238C932D960FB6F894DEBFD8
:1013B0000FBECDBFCF91DF910895DF93CF9300D0C3
:1013C00000D0CDB7DEB789836A838981282F30E0CA
:1013D0003C832B838B819C818434910509F46DC0FF
:1013E0002B813C81253431058CF48B819C818234A6
:1013F0009105D9F12B813C81233431050CF049C092
:101400008B819C8181349105E1F06AC02B813C8104
:101410002236310551F18B819C818336910534F45C
:101420002B813C812136310561F05AC08B819C8132
:101430008336910571F12B813C8124363105E9F128
:101440004FC0ABE3B0E0EBE3F0E08081482F8A814E
:10145000282F30E081E090E0022E02C0880F991F13
:101460000A94E2F784278C933BC0A8E3B0E0E8E35A
:10147000F0E08081482F8A81282F30E081E090E0E1
:10148000022E02C0880F991F0A94E2F784278C93DA
:1014900027C0A5E3B0E0E5E3F0E08081482F8A8132
:1014A000282F30E081E090E0022E02C0880F991FC3
:1014B0000A94E2F784278C9313C0A2E3B0E0E2E33E
:1014C000F0E08081482F8A81282F30E081E090E091
:1014D000022E02C0880F991F0A94E2F784278C938A
:1014E0000F900F900F900F90CF91DF910895DF93A1
:1014F000CF9300D000D00F92CDB7DEB78A836B8335
:1015000019828A81282F30E03D832C834C815D81B4
:101510004434510509F48EC08C819D818534910538
:1015200094F42C813D812234310509F447C04C816B
:101530005D81433451050CF05FC08C819D81813405
:101540009105F1F095C02C813D8122363105B1F134
:101550004C815D814336510534F48C819D81813607
:10156000910571F085C02C813D812336310509F448
:1015700043C04C815D814436510509F45BC078C09D
:10158000E9E3F0E08081482F50E08B81282F30E0A4
:1015900081E090E002C0880F991F2A95E2F79A0136
:1015A000282339238B81882F90E0A90102C055950B
:1015B00047958A95E2F7CA0189835CC0E6E3F0E0CB
:1015C0008081482F50E08B81282F30E081E090E02F
:1015D00002C0880F991F2A95E2F79A012823392320
:1015E0008B81882F90E0A90102C0559547958A9577
:1015F000E2F7CA0189833EC0E3E3F0E08081482F2F
:1016000050E08B81282F30E081E090E002C0880F0D
:10161000991F2A95E2F79A01282339238B81882F75
:1016200090E0A90102C0559547958A95E2F7CA0155
:10163000898320C0E0E3F0E08081482F50E08B8177
:10164000282F30E081E090E002C0880F991F2A9592
:10165000E2F79A01282339238B81882F90E0A90192
:1016600002C0559547958A95E2F7CA01898302C061
:101670008FEF898389810F900F900F900F900F90BB
:10168000CF91DF910895DF93CF9300D000D0CDB7F5
:10169000DEB789836A838981282F30E03C832B83DE
:1016A0008B819C818434910509F43FC02B813C815E
:1016B0002534310584F48B819C818234910559F164
:1016C0002B813C81233431055CF58B819C818134F5
:1016D0009105E1F02EC02B813C8122363105D9F0F5
:1016E0008B819C818336910534F42B813C8121369A
:1016F000310561F01EC08B819C818336910581F09C
:101700002B813C812436310581F013C0EAE3F0E0FF
:101710008A8180830EC0E7E3F0E08A81808309C07C
:10172000E4E3F0E08A81808304C0E1E3F0E08A81B1
:1017300080830F900F900F900F90CF91DF910895BD
:10174000DF93CF9300D000D0CDB7DEB789836A8313
:101750008981282F30E03C832B838B819C818434CA
:10176000910509F43FC02B813C812534310584F477
:101770008B819C818234910559F12B813C812334EA
:1017800031055CF58B819C8181349105E1F02EC09F
:101790002B813C8122363105D9F08B819C818336A7
:1017A000910534F42B813C812136310561F01EC056
:1017B0008B819C818336910581F02B813C8124367D
:1017C000310581F013C0EBE3F0E08A8180830EC025
:1017D000E8E3F0E08A81808309C0E5E3F0E08A81F4
:1017E000808304C0E2E3F0E08A8180830F900F9051
:1017F0000F900F90CF91DF910895DF93CF9300D09A
:1018000000D0CDB7DEB78A8319828A81282F30E0D5
:101810003C832B838B819C818434910509F43FC0E8
:101820002B813C812534310584F48B819C81823469
:10183000910559F12B813C81233431055CF58B8175
:101840009C8181349105E1F02FC02B813C812236AF
:101850003105D9F08B819C818336910534F42B813D
:101860003C812136310561F01FC08B819C8183361C
:10187000910581F02B813C812436310581F014C023
:10188000E9E3F0E08081898311C0E6E3F0E0808144
:1018900089830CC0E3E3F0E08081898307C0E0E343
:1018A000F0E08081898302C08FEF898389810F9066
:1018B0000F900F900F90CF91DF910895DF93CF930A
:1018C00000D00F92CDB7DEB789838981282F30E011
:1018D0003B832A838A819B818434910509F457C014
:1018E000EA81FB81E534F10584F42A813B812234CD
:1018F000310599F18A819B8183349105DCF5EA8178
:10190000FB81E134F105E1F04EC02A813B812236B2
:10191000310519F18A819B818336910534F4EA817E
:10192000FB81E136F10561F03EC02A813B8123361F
:10193000310501F18A819B818436910541F133C0E3
:101940002BE330E0ABE3B0E0EBE3F0E080818095A7
:101950008C938C91F901808326C028E330E0A8E3C2
:10196000B0E0E8E3F0E0808180958C938C91F90100
:10197000808319C025E330E0A5E3B0E0E5E3F0E0C3
:10198000808180958C938C91F90180830CC022E337
:1019900030E0A2E3B0E0E2E3F0E0808180958C9358
:1019A0008C91F90180830F900F900F90CF91DF9170
:1019B0000895DF93CF9300D000D0CDB7DEB78983F1
:1019C0006A838981282F30E03C832B838B819C8123
:1019D0008434910509F46DC02B813C812534310597
:1019E0008CF48B819C8182349105D9F12B813C81CF
:1019F000233431050CF049C08B819C8181349105E1
:101A0000E1F06AC02B813C812236310551F18B8196
:101A10009C818336910534F42B813C81213631053C
:101A200061F05AC08B819C818336910571F12B81C5
:101A30003C8124363105E9F14FC0ABE3B0E0EBE384
:101A4000F0E08081482F8A81282F30E081E090E00B
:101A5000022E02C0880F991F0A94E2F7842B8C9300
:101A60003BC0A8E3B0E0E8E3F0E08081482F8A8142
:101A7000282F30E081E090E0022E02C0880F991FED
:101A80000A94E2F7842B8C9327C0A5E3B0E0E5E34A
:101A9000F0E08081482F8A81282F30E081E090E0BB
:101AA000022E02C0880F991F0A94E2F7842B8C93B0
:101AB00013C0A2E3B0E0E2E3F0E08081482F8A8126
:101AC000282F30E081E090E0022E02C0880F991F9D
:101AD0000A94E2F7842B8C930F900F900F900F9045
:101AE000CF91DF910895DF93CF9300D000D0CDB791
:101AF000DEB789836A838981282F30E03C832B837A
:101B00008B819C818434910509F471C02B813C81C7
:101B1000253431058CF48B819C8182349105E9F167
:101B20002B813C81233431050CF04CC08B819C818E
:101B300081349105E9F06FC02B813C81223631055B
:101B400061F18B819C818336910534F42B813C813A
:101B50002136310569F05FC08B819C818336910508
:101B600089F12B813C812436310509F440C053C0F2
:101B7000ABE3B0E0EBE3F0E08081482F8A81282FCF
:101B800030E081E090E0022E02C0880F991F0A9495
:101B9000E2F7809584238C933EC0A8E3B0E0E8E3AD
:101BA000F0E08081482F8A81282F30E081E090E0AA
:101BB000022E02C0880F991F0A94E2F780958423B1
:101BC0008C9329C0A5E3B0E0E5E3F0E08081482FE5
:101BD0008A81282F30E081E090E0022E02C0880F39
:101BE000991F0A94E2F7809584238C9314C0A2E392
:101BF000B0E0E2E3F0E08081482F8A81282F30E0D6
:101C000081E090E0022E02C0880F991F0A94E2F74B
:101C1000809584238C930F900F900F900F90CF910D
:101C2000DF910895DF93CF9300D000D0CDB7DEB71A
:101C300089836A838A818F708A838981282F30E023
:101C40003C832B838B819C818434910509F461C092
:101C50002B813C81253431058CF48B819C8182342D
:101C60009105B9F12B813C81233431050CF041C041
:101C70008B819C8181349105E1F05AC02B813C819C
:101C80002236310531F18B819C818336910534F404
:101C90002B813C812136310561F04AC08B819C81CA
:101CA0008336910531F12B813C812436310589F150
:101CB0003FC0ABE3B0E0EBE3F0E08081807F8C934A
:101CC000ABE3B0E0EBE3F0E090818A81892B8C9369
:101CD0002FC0A8E3B0E0E8E3F0E08081807F8C9340
:101CE000A8E3B0E0E8E3F0E090818A81892B8C934F
:101CF0001FC0A5E3B0E0E5E3F0E08081807F8C9336
:101D0000A5E3B0E0E5E3F0E090818A81892B8C9334
:101D10000FC0A2E3B0E0E2E3F0E08081807F8C932B
:101D2000A2E3B0E0E2E3F0E090818A81892B8C931A
:101D30000F900F900F900F90CF91DF910895DF9348
:101D4000CF9300D000D0CDB7DEB789836A838A8174
:101D50008295807F8A838981282F30E03C832B8382
:101D60008B819C818434910509F461C02B813C8175
:101D7000253431058CF48B819C8182349105B9F135
:101D80002B813C81233431050CF041C08B819C8137
:101D900081349105E1F05AC02B813C812236310516
:101DA00031F18B819C818336910534F42B813C8108
:101DB0002136310561F04AC08B819C8183369105C3
:101DC00031F12B813C812436310589F13FC0ABE3F1
:101DD000B0E0EBE3F0E080818F708C93ABE3B0E098
:101DE000EBE3F0E090818A81892B8C932FC0A8E3EC
:101DF000B0E0E8E3F0E080818F708C93A8E3B0E07E
:101E0000E8E3F0E090818A81892B8C931FC0A5E3E1
:101E1000B0E0E5E3F0E080818F708C93A5E3B0E063
:101E2000E5E3F0E090818A81892B8C930FC0A2E3D7
:101E3000B0E0E2E3F0E080818F708C93A2E3B0E049
:101E4000E2E3F0E090818A81892B8C930F900F90D0
:101E50000F900F90CF91DF910895DF93CF9300D033
:101E6000CDB7DEB789836A83898164E04A810E94A5
:101E70007507898165E04A810E947507898166E05E
:101E80004A810E947507898167E04A810E9475072F
:101E90000F900F90CF91DF910895DF93CF9300D0F3
:101EA000CDB7DEB789836A83898160E04A810E9469
:101EB0007507898161E04A810E947507898162E026
:101EC0004A810E947507898163E04A810E947507F3
:101ED0000F900F90CF91DF910895DF93CF93CDB7FF
:101EE000DEB7AFE5B0E0EFE5F0E0808180688C938D
:101EF000CF91DF910895DF93CF93CDB7DEB7AFE5F4
:101F0000B0E0EFE5F0E080818F778C93CF91DF91A7
:101F10000895DF93CF930F92CDB7DEB7898384E422
:101F200090E062E070E040E050E00E947507A5E5B7
:101F3000B0E0E5E5F0E090818981892B8C93ABE5F9
:101F4000B0E0EBE5F0E0808180648C930F90CF915E
:101F5000DF910895DF93CF930F92CDB7DEB78983DA
:101F600084E490E063E070E040E050E00E94750798
:101F7000A5E5B0E0E5E5F0E08081282F8981882F94
:101F800090E0880F991F880F991F822B8C93ABE5E7
:101F9000B0E0EBE5F0E0808180688C930F90CF910A
:101FA000DF910895DF93CF930F92CDB7DEB789838A
:101FB00082E490E062E070E040E050E00E9475074B
:101FC0008981833039F4A4E5B0E0E4E5F0E0808174
:101FD00080648C938981823039F4A4E5B0E0E4E533
:101FE000F0E080818F7B8C93ABE5B0E0EBE5F0E037
:101FF000808180628C930F90CF91DF910895DF9361
:10200000CF93CDB7DEB7EAE5F0E08081882F90E08E
:1020100080749070082E892F000C881F990B000C7B
:10202000881F991FCF91DF910895DF93CF93CDB78C
:10203000DEB7EAE5F0E08081881F8827881FCF910E
:10204000DF910895DF93CF93CDB7DEB7EAE5F0E0F7
:102050008081882F90E080729070959587959595F6
:102060008795959587959595879595958795CF9122
:10207000DF910895DF93CF93CDB7DEB7ABE5B0E046
:10208000EBE5F0E0808180648C93CF91DF9108953F
:10209000DF93CF93CDB7DEB7ABE5B0E0EBE5F0E093
:1020A000808180688C93CF91DF910895DF93CF93E7
:1020B000CDB7DEB7ABE5B0E0EBE5F0E08081806264
:1020C0008C93CF91DF910895DF93CF93CDB7DEB797
:1020D000ABE5B0E0EBE5F0E080818F7B8C93CF91B6
:1020E000DF910895DF93CF93CDB7DEB7ABE5B0E0D6
:1020F000EBE5F0E080818F778C93CF91DF910895AD
:10210000DF93CF93CDB7DEB7ABE5B0E0EBE5F0E022
:1021100080818F7D8C93CF91DF9108951F920F92D4
:102120000FB60F9211242F933F934F935F936F93AA
:102130007F938F939F93AF93BF93EF93FF93DF931F
:10214000CF93CDB7DEB7E0918401F0918501099579
:10215000CF91DF91FF91EF91BF91AF919F918F91BF
:102160007F916F915F914F913F912F910F900FBE93
:102170000F901F9018951F920F920FB60F92112477
:102180002F933F934F935F936F937F938F939F937F
:10219000AF93BF93EF93FF93DF93CF93CDB7DEB7AA
:1021A000E0918601F09187010995CF91DF91FF9130
:1021B000EF91BF91AF919F918F917F916F915F91BF
:1021C0004F913F912F910F900FBE0F901F90189538
:1021D0001F920F920FB60F9211242F933F934F939C
:1021E0005F936F937F938F939F93AF93BF93EF937F
:1021F000FF93DF93CF93CDB7DEB7E0918201F091EB
:1022000083010995CF91DF91FF91EF91BF91AF913C
:102210009F918F917F916F915F914F913F912F91FE
:102220000F900FBE0F901F901895DF93CF93CDB7EF
:10223000DEB76C970FB6F894DEBF0FBECDBF81E45A
:1022400060E041E00E94A90880E090E0A0E0B0E4F6
:10225000898F9A8FAB8FBC8F698D7A8D8B8D9C8D7A
:1022600020E030E04AEF54E40E941F02DC01CB0181
:102270008D8B9E8BAF8BB88F6D897E898F89988D62
:1022800020E030E040E85FE30E94250488232CF43E
:1022900081E090E09C8B8B8B3FC06D897E898F891C
:1022A000988D20E03FEF4FE757E40E94C5031816D2
:1022B0004CF5698D7A8D8B8D9C8D20E030E040E26D
:1022C00051E40E941F02DC01CB01BC01CD010E9440
:1022D0004900DC01CB019C8B8B8B0FC088EC90E01C
:1022E0009A8B898B89899A890197F1F79A8B898BC7
:1022F0008B899C8901979C8B8B8B8B899C89009700
:1023000069F714C06D897E898F89988D0E94490074
:10231000DC01CB019C8B8B8B8B899C89988B8F8765
:102320008F8598890197F1F7988B8F8781E460E01A
:1023300040E00E94A90880E090E0A0E0B0E48B8734
:102340009C87AD87BE876B857C858D859E8520E0CB
:1023500030E04AEF54E40E941F02DC01CB018F837E
:102360009887A987BA876F81788589859A8520E0C3
:1023700030E040E85FE30E94250488232CF481E0EC
:1023800090E09E838D833FC06F81788589859A8593
:1023900020E03FEF4FE757E40E94C50318164CF5C5
:1023A0006B857C858D859E8520E030E040E251E4A0
:1023B0000E941F02DC01CB01BC01CD010E9449003B
:1023C000DC01CB019E838D830FC088EC90E09C8361
:1023D0008B838B819C810197F1F79C838B838D810B
:1023E0009E8101979E838D838D819E81009769F7E1
:1023F00014C06F81788589859A850E944900DC0127
:10240000CB019E838D838D819E819A83898389816F
:102410009A810197F1F79A8389836C960FB6F894A5
:10242000DEBF0FBECDBFCF91DF910895DF93CF9375
:10243000CDB7DEB781E461E041E00E94A908CF9109
:10244000DF910895DF93CF93CDB7DEB781E461E0EC
:1024500040E00E94A908CF91DF910895DF93CF93C8
:102460000F92CDB7DEB7898381E462E049810E9493
:10247000A9080F90CF91DF910895DF93CF930F922A
:10248000CDB7DEB789830E9422128981982F929559
:102490009F7081E4692F0E949F0E0E94151181E4B4
:1024A00069810E949F0E0E9415110F90CF91DF91BC
:1024B0000895DF93CF93CDB7DEB72E970FB6F8947C
:1024C000DEBF0FBECDBF81E00E943D1280E090E0F4
:1024D000A0E2B1E48B879C87AD87BE876B857C8546
:1024E0008D859E8520E030E04AEF54E40E941F0273
:1024F000DC01CB018F839887A987BA876F817885A4
:1025000089859A8520E030E040E85FE30E94250459
:1025100088232CF481E090E09E838D833FC06F81FF
:10252000788589859A8520E03FEF4FE757E40E9440
:10253000C50318164CF56B857C858D859E8520E03E
:1025400030E040E251E40E941F02DC01CB01BC01FB
:10255000CD010E944900DC01CB019E838D830FC019
:1025600088EC90E09C838B838B819C810197F1F7B1
:102570009C838B838D819E8101979E838D838D812A
:102580009E81009769F714C06F81788589859A8547
:102590000E944900DC01CB019E838D838D819E8149
:1025A0009A83898389819A810197F1F79A83898334
:1025B0002E960FB6F894DEBF0FBECDBFCF91DF9140
:1025C0000895DF93CF93CDB7DEB72E970FB6F8946B
:1025D000DEBF0FBECDBF82E00E943D1280E090E0E2
:1025E000A0E2B1E48B879C87AD87BE876B857C8535
:1025F0008D859E8520E030E04AEF54E40E941F0262
:10260000DC01CB018F839887A987BA876F81788592
:1026100089859A8520E030E040E85FE30E94250448
:1026200088232CF481E090E09E838D833FC06F81EE
:10263000788589859A8520E03FEF4FE757E40E942F
:10264000C50318164CF56B857C858D859E8520E02D
:1026500030E040E251E40E941F02DC01CB01BC01EA
:10266000CD010E944900DC01CB019E838D830FC008
:1026700088EC90E09C838B838B819C810197F1F7A0
:102680009C838B838D819E8101979E838D838D8119
:102690009E81009769F714C06F81788589859A8536
:1026A0000E944900DC01CB019E838D838D819E8138
:1026B0009A83898389819A810197F1F79A83898323
:1026C0002E960FB6F894DEBF0FBECDBFCF91DF912F
:1026D0000895DF93CF93CDB7DEB72E970FB6F8945A
:1026E000DEBF0FBECDBF86E00E943D1280E090E0CD
:1026F000A0E8BFE38B879C87AD87BE876B857C8511
:102700008D859E8520E030E04AEF54E40E941F0250
:10271000DC01CB018F839887A987BA876F81788581
:1027200089859A8520E030E040E85FE30E94250437
:1027300088232CF481E090E09E838D833FC06F81DD
:10274000788589859A8520E03FEF4FE757E40E941E
:10275000C50318164CF56B857C858D859E8520E01C
:1027600030E040E251E40E941F02DC01CB01BC01D9
:10277000CD010E944900DC01CB019E838D830FC0F7
:1027800088EC90E09C838B838B819C810197F1F78F
:102790009C838B838D819E8101979E838D838D8108
:1027A0009E81009769F714C06F81788589859A8525
:1027B0000E944900DC01CB019E838D838D819E8127
:1027C0009A83898389819A810197F1F79A83898312
:1027D0002E960FB6F894DEBF0FBECDBFCF91DF911E
:1027E0000895DF93CF93CDB7DEB72E970FB6F89449
:1027F000DEBF0FBECDBF8EE00E943D1280E090E0B4
:10280000A0E8BFE38B879C87AD87BE876B857C85FF
:102810008D859E8520E030E04AEF54E40E941F023F
:10282000DC01CB018F839887A987BA876F81788570
:1028300089859A8520E030E040E85FE30E94250426
:1028400088232CF481E090E09E838D833FC06F81CC
:10285000788589859A8520E03FEF4FE757E40E940D
:10286000C50318164CF56B857C858D859E8520E00B
:1028700030E040E251E40E941F02DC01CB01BC01C8
:10288000CD010E944900DC01CB019E838D830FC0E6
:1028900088EC90E09C838B838B819C810197F1F77E
:1028A0009C838B838D819E8101979E838D838D81F7
:1028B0009E81009769F714C06F81788589859A8514
:1028C0000E944900DC01CB019E838D838D819E8116
:1028D0009A83898389819A810197F1F79A83898301
:1028E0002E960FB6F894DEBF0FBECDBFCF91DF910D
:1028F0000895DF93CF93CDB7DEB72E970FB6F89438
:10290000DEBF0FBECDBF8CE00E943D1280E090E0A4
:10291000A0E8BFE38B879C87AD87BE876B857C85EE
:102920008D859E8520E030E04AEF54E40E941F022E
:10293000DC01CB018F839887A987BA876F8178855F
:1029400089859A8520E030E040E85FE30E94250415
:1029500088232CF481E090E09E838D833FC06F81BB
:10296000788589859A8520E03FEF4FE757E40E94FC
:10297000C50318164CF56B857C858D859E8520E0FA
:1029800030E040E251E40E941F02DC01CB01BC01B7
:10299000CD010E944900DC01CB019E838D830FC0D5
:1029A00088EC90E09C838B838B819C810197F1F76D
:1029B0009C838B838D819E8101979E838D838D81E6
:1029C0009E81009769F714C06F81788589859A8503
:1029D0000E944900DC01CB019E838D838D819E8105
:1029E0009A83898389819A810197F1F79A838983F0
:1029F0002E960FB6F894DEBF0FBECDBFCF91DF91FC
:102A00000895DF93CF93CDB7DEB72E970FB6F89426
:102A1000DEBF0FBECDBF8FE00E943D1280E090E090
:102A2000A0E8BFE38B879C87AD87BE876B857C85DD
:102A30008D859E8520E030E04AEF54E40E941F021D
:102A4000DC01CB018F839887A987BA876F8178854E
:102A500089859A8520E030E040E85FE30E94250404
:102A600088232CF481E090E09E838D833FC06F81AA
:102A7000788589859A8520E03FEF4FE757E40E94EB
:102A8000C50318164CF56B857C858D859E8520E0E9
:102A900030E040E251E40E941F02DC01CB01BC01A6
:102AA000CD010E944900DC01CB019E838D830FC0C4
:102AB00088EC90E09C838B838B819C810197F1F75C
:102AC0009C838B838D819E8101979E838D838D81D5
:102AD0009E81009769F714C06F81788589859A85F2
:102AE0000E944900DC01CB019E838D838D819E81F4
:102AF0009A83898389819A810197F1F79A838983DF
:102B00002E960FB6F894DEBF0FBECDBFCF91DF91EA
:102B10000895DF93CF93CDB7DEB784E10E943D12D5
:102B2000CF91DF910895DF93CF93CDB7DEB780E1EA
:102B30000E943D12CF91DF910895DF93CF93CDB7DF
:102B4000DEB72E970FB6F894DEBF0FBECDBF84E080
:102B50000E943D1280E090E0A0E8BFE38B879C8755
:102B6000AD87BE876B857C858D859E8520E030E0B6
:102B70004AEF54E40E941F02DC01CB018F83988747
:102B8000A987BA876F81788589859A8520E030E0AA
:102B900040E85FE30E94250488232CF481E090E064
:102BA0009E838D833FC06F81788589859A8520E0DB
:102BB0003FEF4FE757E40E94C50318164CF56B85AD
:102BC0007C858D859E8520E030E040E251E40E94C6
:102BD0001F02DC01CB01BC01CD010E944900DC01D8
:102BE000CB019E838D830FC088EC90E09C838B8308
:102BF0008B819C810197F1F79C838B838D819E81D2
:102C000001979E838D838D819E81009769F714C003
:102C10006F81788589859A850E944900DC01CB0106
:102C20009E838D838D819E819A83898389819A81F8
:102C30000197F1F79A8389832E960FB6F894DEBF39
:102C40000FBECDBFCF91DF910895DF93CF93CDB766
:102C5000DEB78CE10E943D12CF91DF910895DF93A2
:102C6000CF93CDB7DEB788E10E943D12CF91DF91BF
:102C70000895DF93CF9300D00F92CDB7DEB78A834C
:102C80006B8380E889838A81833048F48A81882332
:102C900031F08B81813118F48B81882321F4898173
:102CA0000E943D1213C08A81813039F48B81815892
:102CB000898389810E943D1209C08A81823031F462
:102CC0008B818154898389810E943D120F900F90DE
:102CD0000F90CF91DF910895DF93CF930F92CDB7EF
:102CE000DEB789830E9416128981982F92959F7072
:102CF00081E4692F0E949F0E0E94151181E4698171
:102D00000E949F0E0E9415110F90CF91DF910895A0
:102D1000DF93CF9300D0CDB7DEB79A8389830AC003
:102D2000E981FA8180810E946C1689819A810196DD
:102D30009A838983E981FA818081882389F70F90BA
:102D40000F90CF91DF910895DF93CF93CDB7DEB78A
:102D5000AA970FB6F894DEBF0FBECDBF80E090E01B
:102D6000A8E4B3E48FA398A7A9A7BAA76FA178A5F1
:102D700089A59AA520E030E04AEF54E40E941F02A2
:102D8000DC01CB018BA39CA3ADA3BEA36BA17CA153
:102D90008DA19EA120E030E040E85FE30E94250481
:102DA00088232CF481E090E09AA389A33FC06BA113
:102DB0007CA18DA19EA120E03FEF4FE757E40E9448
:102DC000C50318164CF56FA178A589A59AA520E032
:102DD00030E040E251E40E941F02DC01CB01BC0163
:102DE000CD010E944900DC01CB019AA389A30FC049
:102DF00088EC90E098A38F8F8F8D98A10197F1F7C1
:102E000098A38F8F89A19AA101979AA389A389A1D9
:102E10009AA1009769F714C06BA17CA18DA19EA116
:102E20000E944900DC01CB019AA389A389A19AA140
:102E30009E8F8D8F8D8D9E8D0197F1F79E8F8D8F3B
:102E400081E461E00E942D0F81E461E041E00E9495
:102E5000750781E462E041E00E94750781E460E06B
:102E600041E00E94750782E00E943D1280E090E000
:102E7000A0E8BFE3898F9A8FAB8FBC8F698D7A8D65
:102E80008B8D9C8D20E030E04AEF54E40E941F02BD
:102E9000DC01CB018D8B9E8BAF8BB88F6D897E89CA
:102EA0008F89988D20E030E040E85FE30E942504A0
:102EB00088232CF481E090E09C8B8B8B3FC06D8944
:102EC0007E898F89988D20E03FEF4FE757E40E947D
:102ED000C50318164CF5698D7A8D8B8D9C8D20E07D
:102EE00030E040E251E40E941F02DC01CB01BC0152
:102EF000CD010E944900DC01CB019C8B8B8B0FC064
:102F000088EC90E09A8B898B89899A890197F1F7EF
:102F10009A8B898B8B899C8901979C8B8B8B8B8956
:102F20009C89009769F714C06D897E898F89988D77
:102F30000E944900DC01CB019C8B8B8B8B899C8987
:102F4000988B8F878F8598890197F1F7988B8F875A
:102F500088E20E943D1280E090E0A0E8BFE38B870A
:102F60009C87AD87BE876B857C858D859E8520E09F
:102F700030E04AEF54E40E941F02DC01CB018F8352
:102F80009887A987BA876F81788589859A8520E097
:102F900030E040E85FE30E94250488232CF481E0C0
:102FA00090E09E838D833FC06F81788589859A8567
:102FB00020E03FEF4FE757E40E94C50318164CF599
:102FC0006B857C858D859E8520E030E040E251E474
:102FD0000E941F02DC01CB01BC01CD010E9449000F
:102FE000DC01CB019E838D830FC088EC90E09C8335
:102FF0008B838B819C810197F1F79C838B838D81DF
:103000009E8101979E838D838D819E81009769F7B4
:1030100014C06F81788589859A850E944900DC01FA
:10302000CB019E838D838D819E819A838983898143
:103030009A810197F1F79A8389830E94E1120E9495
:10304000F1130E9459120E946913AA960FB6F894C0
:10305000DEBF0FBECDBFCF91DF910895DF93CF9339
:10306000CDB7DEB762970FB6F894DEBF0FBECDBF07
:103070009A8B898B89899A899E012F5F3F4FB9016D
:103080004AE050E00E942522CE0101960E94881657
:1030900062960FB6F894DEBF0FBECDBFCF91DF9121
:1030A0000895DF93CF93CDB7DEB7A3E5B0E0E3E5B6
:1030B000F0E0808181608C93A3E5B0E0E3E5F0E08F
:1030C00080818D7F8C93A3E5B0E0E3E5F0E0808123
:1030D00084608C93CF91DF910895DF93CF93CDB728
:1030E000DEB7A3E5B0E0E3E5F0E080818E7F8C936E
:1030F000A3E5B0E0E3E5F0E080818D7F8C93A3E56C
:10310000B0E0E3E5F0E080818B7F8C93CF91DF919D
:103110000895DF93CF93CDB7DEB70E945118CF91BA
:10312000DF910895DF93CF93CDB7DEB7A3E5B0E08D
:10313000E3E5F0E0808181608C93A3E5B0E0E3E516
:10314000F0E0808182608C93A3E5B0E0E3E5F0E0FD
:10315000808184608C93CF91DF910895DF93CF932A
:10316000CDB7DEB7A3E5B0E0E3E5F0E080818F7B8B
:103170008C93A3E5B0E0E3E5F0E08081877F8C935A
:103180000E946D0FA9E5B0E0E9E5F0E08081816083
:103190008C930E948918CF91DF910895DF93CF938C
:1031A0000F92CDB7DEB78983A3E5B0E0E3E5F0E0A9
:1031B00080818F7B8C93A3E5B0E0E3E5F0E0808134
:1031C00088608C93ECE5F0E0898180830E946D0F2C
:1031D000A9E5B0E0E9E5F0E0808182608C930E948F
:1031E00089180F90CF91DF910895DF93CF930F92BD
:1031F000CDB7DEB7898382E463E041E00E947507C2
:10320000A3E5B0E0E3E5F0E080818F7B8C93A3E55C
:10321000B0E0E3E5F0E0808188608C93ECE5F0E0DD
:1032200089818083A3E5B0E0E3E5F0E080818061FF
:103230008C93A3E5B0E0E3E5F0E080818F7D8C9393
:103240000E9489180F90CF91DF910895DF93CF935B
:103250000F92CDB7DEB7898382E463E041E00E943C
:103260007507A3E5B0E0E3E5F0E0808180648C932E
:10327000A3E5B0E0E3E5F0E0808188608C93ECE5C5
:10328000F0E0898180830E945118A3E5B0E0E3E576
:10329000F0E080818F7E8C93A3E5B0E0E3E5F0E081
:1032A000808180628C930F90CF91DF910895DF939E
:1032B000CF930F92CDB7DEB789838981882F90E0B5
:1032C000AA2797FDA095BA2FBC01CD010E945504F5
:1032D000DC01CB01BC01CD0123E333E343E250E445
:1032E0000E941F02DC01CB01BC01CD010E944900FC
:1032F000DC01CB010E9426190F90CF91DF91089538
:10330000DF93CF930F92CDB7DEB7898382E463E07A
:1033100041E00E947507A3E5B0E0E3E5F0E08081BD
:1033200080648C93A3E5B0E0E3E5F0E08081877FE3
:103330008C93ECE5F0E0898180830E945118A3E52D
:10334000B0E0E3E5F0E080818F7E8C93A3E5B0E010
:10335000E3E5F0E0808180628C930F90CF91DF9164
:103360000895DF93CF93CDB7DEB7E2E5F0E01082AA
:10337000CF91DF910895DF93CF93CDB7DEB7AEE461
:10338000B0E0EEE4F0E0808181608C93AEE4B0E0E8
:10339000EEE4F0E080818D7F8C93AEE4B0E0EEE46B
:1033A000F0E0808184608C93CF91DF910895DF936A
:1033B000CF93CDB7DEB7AEE4B0E0EEE4F0E08081CD
:1033C0008E7F8C93AEE4B0E0EEE4F0E080818D7F00
:1033D0008C93AEE4B0E0EEE4F0E080818B7F8C93E0
:1033E000CF91DF910895DF93CF93CDB7DEB70E94E1
:1033F000BB19CF91DF910895DF93CF93CDB7DEB79F
:10340000AEE4B0E0EEE4F0E0808181608C93AEE465
:10341000B0E0EEE4F0E0808182608C93AEE4B0E056
:10342000EEE4F0E0808184608C93CF91DF91089589
:10343000DF93CF93CDB7DEB7AFE4B0E0EFE4F0E0D9
:1034400080818E7F8C93AFE4B0E0EFE4F0E0808188
:103450008D7F8C93AEE4B0E0EEE4F0E08081877F76
:103460008C93AEE4B0E0EEE4F0E080818F7E8C934C
:103470000E946D0FA9E5B0E0E9E5F0E0808184608D
:103480008C930E94F319CF91DF910895DF93CF932E
:1034900000D0CDB7DEB79A838983AFE4B0E0EFE424
:1034A000F0E080818E7F8C93AFE4B0E0EFE4F0E059
:1034B00080818D7F8C93AEE4B0E0EEE4F0E080811B
:1034C00088608C93AEE4B0E0EEE4F0E080818F7E23
:1034D0008C93EAE4F0E089819A81918380830E9451
:1034E0006D0FA9E5B0E0E9E5F0E0808180618C93A3
:1034F0000E94F3190F900F90CF91DF910895DF9301
:10350000CF9300D0CDB7DEB79A838983AFE4B0E024
:10351000EFE4F0E080818E7F8C93AFE4B0E0EFE4E5
:10352000F0E080818D7F8C93AEE4B0E0EEE4F0E0DB
:10353000808188608C93AEE4B0E0EEE4F0E08081BE
:1035400080618C93E6E4F0E089819A8191838083A5
:103550000E946D0FA9E5B0E0E9E5F0E080818062AE
:103560008C930E94F3190F900F90CF91DF910895E3
:10357000DF93CF9300D0CDB7DEB79A838983AFE4D2
:10358000B0E0EFE4F0E080818E7F8C93AFE4B0E0B8
:10359000EFE4F0E080818D7F8C93AEE4B0E0EEE468
:1035A000F0E0808188608C93AEE4B0E0EEE4F0E07F
:1035B00080818F7E8C93E8E4F0E089819A81918309
:1035C00080830E946D0FA9E5B0E0E9E5F0E080811D
:1035D00088608C930E94F3190F900F90CF91DF9128
:1035E0000895DF93CF9300D0CDB7DEB79A83898358
:1035F00084E465E041E00E947507AFE4B0E0EFE4E9
:10360000F0E080818E7F8C93AFE4B0E0EFE4F0E0F7
:1036100080818D7F8C93AEE4B0E0EEE4F0E08081B9
:1036200088608C93AEE4B0E0EEE4F0E080818F7EC1
:103630008C93EAE4F0E089819A81918380830E94EF
:10364000BB19AFE4B0E0EFE4F0E0808180648C93DC
:10365000AFE4B0E0EFE4F0E080818F778C930F90DF
:103660000F90CF91DF910895DF93CF9300D0CDB726
:10367000DEB79A83898384E464E041E00E947507A1
:10368000AFE4B0E0EFE4F0E080818E7F8C93AFE4B4
:10369000B0E0EFE4F0E080818D7F8C93AEE4B0E0A9
:1036A000EEE4F0E0808188608C93AEE4B0E0EEE47C
:1036B000F0E080818F7E8C93E8E4F0E089819A814C
:1036C000918380830E94BB19AFE4B0E0EFE4F0E0A7
:1036D000808180618C93AFE4B0E0EFE4F0E0808122
:1036E0008F7D8C930F900F90CF91DF910895DF9392
:1036F000CF9300D0CDB7DEB79A83898384E465E0A9
:1037000041E00E947507AFE4B0E0EFE4F0E08081B3
:1037100081608C93AFE4B0E0EFE4F0E08081826000
:103720008C93AEE4B0E0EEE4F0E0808188608C93AE
:10373000AEE4B0E0EEE4F0E0808180618C93EAE4F6
:10374000F0E089819A81918380830E94BB19AFE464
:10375000B0E0EFE4F0E080818F7B8C93AFE4B0E0E9
:10376000EFE4F0E0808180688C930F900F90CF9110
:10377000DF910895DF93CF930F92CDB7DEB78983A2
:103780008981882F90E0AA2797FDA095BA2FBC01C8
:10379000CD010E945504DC01CB01BC01CD0126E620
:1037A00036ED43E254E40E941F02DC01CB01BC0170
:1037B000CD010E944900DC01CB010E94771B0F90D4
:1037C000CF91DF910895DF93CF9300D0CDB7DEB7CF
:1037D0009A83898384E464E041E00E947507AFE442
:1037E000B0E0EFE4F0E0808181608C93AFE4B0E082
:1037F000EFE4F0E0808182608C93AEE4B0E0EEE430
:10380000F0E0808188608C93AEE4B0E0EEE4F0E01C
:10381000808180618C93E8E4F0E089819A819183D2
:1038200080830E94BB19AFE4B0E0EFE4F0E0808158
:103830008F7E8C93AFE4B0E0EFE4F0E080818062B3
:103840008C930F900F90CF91DF910895DF93CF93DA
:103850000F92CDB7DEB789838981882F90E0AA27A0
:1038600097FDA095BA2FBC01CD010E945504DC0143
:10387000CB01BC01CD0126E636ED43E254E40E94C3
:103880001F02DC01CB01BC01CD010E944900DC011B
:10389000CB010E94E31B0F90CF91DF910895DF933E
:1038A000CF93CDB7DEB784E465E041E00E947507B1
:1038B000AFE4B0E0EFE4F0E0808181608C93AFE4AE
:1038C000B0E0EFE4F0E080818D7F8C93AEE4B0E077
:1038D000EEE4F0E0808188608C93AEE4B0E0EEE44A
:1038E000F0E080818F7E8C930E94BB19AFE4B0E042
:1038F000EFE4F0E080818F7B8C93AFE4B0E0EFE405
:10390000F0E0808180688C93CF91DF910895DF9300
:10391000CF93CDB7DEB784E464E041E00E94750741
:10392000AFE4B0E0EFE4F0E0808181608C93AFE43D
:10393000B0E0EFE4F0E080818D7F8C93AEE4B0E006
:10394000EEE4F0E0808188608C93AEE4B0E0EEE4D9
:10395000F0E080818F7E8C930E94BB19AFE4B0E0D1
:10396000EFE4F0E080818F7E8C93AFE4B0E0EFE491
:10397000F0E0808180628C93CF91DF910895DF9396
:10398000CF93CDB7DEB7AEE4B0E0EEE4F0E08081F7
:10399000806C8C93CF91DF910895DF93CF93CDB757
:1039A000DEB7AEE4B0E0EEE4F0E0808180688C93B6
:1039B000AEE4B0E0EEE4F0E080818F7B8C93CF91B9
:1039C000DF910895DF93CF93CDB7DEB7A8E5B0E0E0
:1039D000E8E5F0E0808180628C93CF91DF910895DB
:1039E000DF93CF93CDB7DEB7E8E5F0E08081882F95
:1039F00090E08072907095958795959587959595AF
:103A000087959595879595958795CF91DF910895A1
:103A1000DF93CF93CDB7DEB7ECE4F0E011821082F4
:103A2000CF91DF910895DF93CF93CDB7DEB784E4D4
:103A300065E041E00E947507AFE4B0E0EFE4F0E03C
:103A4000808181608C93AFE4B0E0EFE4F0E08081AE
:103A50008D7F8C93AEE4B0E0EEE4F0E08081877F70
:103A60008C93AEE4B0E0EEE4F0E080818F7E8C9346
:103A70000E94BB19AFE4B0E0EFE4F0E080818F7BFF
:103A80008C93AFE4B0E0EFE4F0E0808180688C9349
:103A9000CF91DF910895DF93CF93CDB7DEB784E464
:103AA00064E041E00E947507AFE4B0E0EFE4F0E0CD
:103AB000808181608C93AFE4B0E0EFE4F0E080813E
:103AC0008D7F8C93AEE4B0E0EEE4F0E08081877F00
:103AD0008C93AEE4B0E0EEE4F0E080818F7E8C93D6
:103AE0000E94BB19AFE4B0E0EFE4F0E080818F7E8C
:103AF0008C93AFE4B0E0EFE4F0E0808180628C93DF
:103B0000CF91DF910895DF93CF9300D0CDB7DEB78B
:103B10009A83898384E465E041E00E947507AFE4FD
:103B2000B0E0EFE4F0E0808181608C93AFE4B0E03E
:103B3000EFE4F0E0808182608C93AEE4B0E0EEE4EC
:103B4000F0E08081877F8C93AEE4B0E0EEE4F0E0BB
:103B5000808180618C93EAE4F0E089819A8191838D
:103B600080830E94BB19AFE4B0E0EFE4F0E0808115
:103B70008F7B8C93AFE4B0E0EFE4F0E0808180686D
:103B80008C930F900F90CF91DF910895DF93CF9397
:103B900000D0CDB7DEB79A83898384E465E041E045
:103BA0000E947507AFE4B0E0EFE4F0E0808181604F
:103BB0008C93AFE4B0E0EFE4F0E0808182608C931E
:103BC000AEE4B0E0EEE4F0E08081877F8C93AEE479
:103BD000B0E0EEE4F0E0808180618C93E8E4F0E016
:103BE00089819A81918380830E94BB19AFE4B0E000
:103BF000EFE4F0E080818F7E8C93AFE4B0E0EFE4FF
:103C0000F0E0808180628C930F900F90CF91DF91D4
:103C10000895DF93CF93CDB7DEB7A2E4B0E0E2E43E
:103C2000F0E08081877F8C93CF91DF910895DF93BF
:103C3000CF93CDB7DEB70E94091EA5E4B0E0E5E45E
:103C4000F0E0808181608C93A5E4B0E0E5E4F0E0F1
:103C5000808182608C93A5E4B0E0E5E4F0E08081AF
:103C600084608C93CF91DF910895DF93CF93CDB78C
:103C7000DEB7A5E4B0E0E5E4F0E080818E7F8C93D0
:103C8000A5E4B0E0E5E4F0E080818D7F8C93A5E4CD
:103C9000B0E0E5E4F0E080818B7F8C93CF91DF9101
:103CA0000895DF93CF93CDB7DEB70E94171ECF9153
:103CB000DF910895DF93CF93CDB7DEB7A5E4B0E0F1
:103CC000E5E4F0E080818F7B8C93A5E4B0E0E5E44F
:103CD000F0E08081877F8C930E946D0FA9E5B0E0B2
:103CE000E9E5F0E0808180648C930E94511ECF91C1
:103CF000DF910895DF93CF930F92CDB7DEB789831D
:103D0000A5E4B0E0E5E4F0E080818F7B8C93A5E44E
:103D1000B0E0E5E4F0E0808188608C93E3E4F0E0DB
:103D2000898180830E946D0FA9E5B0E0E9E5F0E0AC
:103D3000808180688C930E94511E0F90CF91DF91FB
:103D40000895DF93CF930F92CDB7DEB7898384E4D4
:103D500067E041E00E947507A5E4B0E0E5E4F0E02B
:103D600080818F7B8C93A5E4B0E0E5E4F0E0808176
:103D700088608C93E3E4F0E0898180830E94171EC1
:103D8000A5E4B0E0E5E4F0E0808180618C93A5E4F7
:103D9000B0E0E5E4F0E080818F7D8C930F90CF91CF
:103DA000DF910895DF93CF930F92CDB7DEB789836C
:103DB00084E467E041E00E947507A5E4B0E0E5E433
:103DC000F0E0808180648C93A5E4B0E0E5E4F0E06D
:103DD000808188608C93E3E4F0E0898180830E9495
:103DE000171EA5E4B0E0E5E4F0E080818F7E8C93BF
:103DF000A5E4B0E0E5E4F0E0808180628C930F9070
:103E0000CF91DF910895DF93CF930F92CDB7DEB7B7
:103E100089838981882F90E0AA2797FDA095BA2FE2
:103E2000BC01CD010E945504DC01CB01BC01CD01D8
:103E300023E333E343E250E40E941F02DC01CB01A1
:103E4000BC01CD010E944900DC01CB010E94D21EC1
:103E50000F90CF91DF910895DF93CF930F92CDB75D
:103E6000DEB7898382E463E041E00E947507A5E440
:103E7000B0E0E5E4F0E0808180648C93A5E4B0E0FC
:103E8000E5E4F0E08081877F8C93E3E4F0E08981D2
:103E900080830E94171EA5E4B0E0E5E4F0E0808195
:103EA0008F7E8C93A5E4B0E0E5E4F0E08081806251
:103EB0008C930F90CF91DF910895DF93CF93CDB77F
:103EC000DEB7E4E4F0E01082CF91DF910895DF9354
:103ED000CF9300D0CDB7DEB789836A8389816A81A9
:103EE00041E00E9475070F900F90CF91DF910895E8
:103EF000DF93CF93CDB7DEB76A970FB6F894DEBFE6
:103F00000FBECDBF898F6A8F898D6A8D41E00E9477
:103F1000A90880E090E0A8E4B2E48D8B9E8BAF8B83
:103F2000B88F6D897E898F89988D2BEA3AEA4AE2AB
:103F300050E40E941F02DC01CB01898B9A8BAB8B72
:103F4000BC8B69897A898B899C8920E030E040E8C4
:103F50005FE30E94250488231CF481E0888B91C0D4
:103F600069897A898B899C8920E030E04FE753E4A6
:103F70000E94C50318160CF07BC06D897E898F895D
:103F8000988D20E030E04AE754E40E941903DC01F8
:103F9000CB018C879D87AE87BF876C857D858E859D
:103FA0009F8520E030E04AEF54E40E941F02DC01CC
:103FB000CB0188879987AA87BB87688579858A8599
:103FC0009B8520E030E040E85FE30E9425048823E1
:103FD0002CF481E090E09F838E833FC068857985D3
:103FE0008A859B8520E03FEF4FE757E40E94C50399
:103FF00018164CF56C857D858E859F8520E030E018
:1040000040E251E40E941F02DC01CB01BC01CD0162
:104010000E944900DC01CB019F838E830FC088EC96
:1040200090E09D838C838C819D810197F1F79D8326
:104030008C838E819F8101979F838E838E819F8148
:10404000009769F724C0688579858A859B850E94D9
:104050004900DC01CB019F838E838E819F819B83EE
:104060008A838A819B810197F1F79B838A830FC0A2
:1040700069897A898B899C890E944900DC01CB017E
:10408000888B8889898389818A95F1F78983898DCD
:104090006A8D40E00E94A9086A960FB6F894DEBFC8
:1040A0000FBECDBFCF91DF910895DF93CF93CDB7F2
:1040B000DEB728970FB6F894DEBF0FBECDBF8F8353
:1040C00068870E94081D0E94F3190E94E21C8F81DC
:1040D00068850E94781F0E94BF1C0E94F01C8823E4
:1040E000E1F3E6E4F0E0808191819C838B830E9480
:1040F000E21C0E94CD1C0E94F01C8823E1F3E6E440
:10410000F0E0808191819A8389830E94E21C0E9461
:10411000D7190E94081D29813A818B819C81A901B0
:10412000481B590BCA019E838D838D819E81CC01D2
:10413000A0E0B0E0BC01CD010E940705DC01CB018D
:10414000BC01CD012BEB38EB4DE050E40E941F0287
:10415000DC01CB01BC01CD010E944900DC01CB0197
:1041600028960FB6F894DEBF0FBECDBFCF91DF917A
:104170000895DF93CF93CDB7DEB766970FB6F89467
:10418000DEBF0FBECDBF0E94A41683E460E00E9494
:10419000671F83E461E00E94671F83E462E00E947E
:1041A000671F83E463E00E94671F0E94181A0E9441
:1041B000D7190E94791483E460E00E9455209E8BF9
:1041C0008D8B83E461E00E9455209C8B8B8B83E474
:1041D00062E00E9455209A8B898B83E463E00E9401
:1041E0005520988B8F8781E061E00E94391680E628
:1041F00090E00E9488168D899E892AE030E0B901FE
:104200000E94DA21CB01805D0E946C168D899E8907
:104210002AE030E0B9010E94DA21805D0E946C162C
:1042200081E06AE00E94391687E690E00E948816D5
:104230008B899C892AE030E0B9010E94DA21CB0108
:10424000805D0E946C168B899C892AE030E0B90160
:104250000E94DA21805D0E946C1682E061E00E947B
:1042600039168DE690E00E94881689899A892AE09D
:1042700030E0B9010E94DA21CB01805D0E946C160A
:1042800089899A892AE030E0B9010E94DA21805DAB
:104290000E946C1682E06AE00E94391684E790E082
:1042A0000E9488168F8598892AE030E0B9010E9423
:1042B000DA21CB01805D0E946C168F8598892AE0F7
:1042C00030E0B9010E94DA21805D0E946C1680E026
:1042D00090E0A8ECB2E48B879C87AD87BE876B85A6
:1042E0007C858D859E8520E030E04AEF54E40E9475
:1042F0001F02DC01CB018F839887A987BA876F8162
:10430000788589859A8520E030E040E85FE30E9467
:10431000250488232CF481E090E09E838D833FC0A8
:104320006F81788589859A8520E03FEF4FE757E4D4
:104330000E94C50318164CF56B857C858D859E857E
:1043400020E030E040E251E40E941F02DC01CB019A
:10435000BC01CD010E944900DC01CB019E838D830D
:104360000FC088EC90E09C838B838B819C810197AC
:10437000F1F79C838B838D819E8101979E838D8332
:104380008D819E81009769F716CF6F817885898529
:104390009A850E944900DC01CB019E838D838D812B
:1043A0009E819A83898389819A810197F1F79A8303
:1043B000898301CFAA1BBB1B51E107C0AA1FBB1FEA
:1043C000A617B70710F0A61BB70B881F991F5A95A1
:1043D000A9F780959095BC01CD0108952F923F9249
:1043E0004F925F926F927F928F929F92AF92BF9205
:1043F000CF92DF92EF92FF920F931F93CF93DF93B1
:10440000CDB7DEB7CA1BDB0B0FB6F894DEBF0FBE0D
:10441000CDBF09942A88398848885F846E847D845A
:104420008C849B84AA84B984C884DF80EE80FD805C
:104430000C811B81AA81B981CE0FD11D0FB6F894D2
:10444000DEBF0FBECDBFED010895FB019F01E894D3
:104450004230C4F04532B4F44A3029F497FB1EF4DC
:10446000909581959F4F642F77270E94DA21805D78
:104470008A330CF0895D8193CB010097A1F716F484
:104480005DE251931082C9010C944622DC01FC01CB
:10449000672F71917723E1F7329704C07C916D9378
:1044A00070836291AE17BF07C8F30895F894FFCFE9
:1044B00046726F6E743A004261636B3A00526967EC
:1044C00068743A004C6566743A0000000000000011
:1044D00000000001020203030303040404040404B3
:1044E000040405050505050505050505050505057E
:1044F000050506060606060606060606060606065E
:10450000060606060606060606060606060606064B
:10451000060607070707070707070707070707072D
:10452000070707070707070707070707070707071B
:10453000070707070707070707070707070707070B
:1045400007070707070707070707070707070707FB
:1045500007070808080808080808080808080808DD
:1045600008080808080808080808080808080808CB
:1045700008080808080808080808080808080808BB
:1045800008080808080808080808080808080808AB
:10459000080808080808080808080808080808089B
:1045A000080808080808080808080808080808088B
:1045B000080808080808080808080808080808087B
:1045C000080808080808080808080808080808086B
:0245D0000808D9
:00000001FF
